S015000054726166666963206C696768742E7372656318
S11300000C942A000C943C000C943C000C943C008E
S11300100C943C000C943C000C943C000C943C006C
S11300200C943C000C943C000C943C000C943C005C
S11300300C943C000C943C000C943C000C943C004C
S11300400C943C000C943C000C943C000C943C003C
S11300500C943C0011241FBECFE5D8E0DEBFCDBF19
S113006020E0A0E6B0E001C01D92A236B207E1F79D
S11300700E94E6000C9493020C9400000E9440023B
S113008060E081E40E946D0061E081E40E946D0003
S113009062E081E40E946D0060E083E40E946D00F0
S11300A061E083E40E946D0062E083E40E946D00DD
S11300B008950E9488000E9451020E94A1000E949B
S11300C0CD000E9451020E94A1000895982F862F0E
S11300D040E0692F0E94EB000895982F862F41E09D
S11300E0692F0E94EB000895982F862F41E0692F15
S11300F00E9476010895982F862F40E0692F0E9470
S113010076010895982F862F692F0E940102089581
S113011060E081E40E94740062E083E40E94740061
S113012061E081E40E947B0061E083E40E947B0043
S113013062E081E40E947B0060E083E40E947B0033
S11301400895CF9360E081E40E947B0062E083E441
S11301500E947B0062E081E40E947B0060E083E413
S11301600E947B00C0E015C061E081E40E9482002F
S113017061E083E40E9482000E94720261E081E4F3
S11301800E94820061E083E40E9482000E94720265
S1130190CF5FC53048F3CF91089562E081E40E94B7
S11301A0740060E083E40E94740061E081E40E94D2
S11301B07B0061E083E40E947B0060E081E40E94B4
S11301C07B0062E083E40E947B0008950E943E006D
S11301D00E945900FDCF623459F118F4613441F0A2
S11301E00895633409F444C0643409F460C0089584
S11301F041110EC04AB321E030E0B90102C0660FDC
S1130200771F8A95E2F7CB01809584238ABB0895F2
S1130210413009F06AC04AB321E030E0B90102C0BC
S1130220660F771F8A95E2F7CB01842B8ABB08956A
S113023041110EC047B321E030E0B90102C0660F9E
S1130240771F8A95E2F7CB018095842387BB0895B5
S1130250413009F04AC047B321E030E0B90102C09F
S1130260660F771F8A95E2F7CB01842B87BB08952D
S113027041110EC044B321E030E0B90102C0660F61
S1130280771F8A95E2F7CB018095842384BB089578
S1130290413059F544B321E030E0B90102C0660FA2
S11302A0771F8A95E2F7CB01842B84BB0895411113
S11302B00EC041B321E030E0B90102C0660F771FE0
S11302C08A95E2F7CB018095842381BB0895413060
S11302D061F441B321E030E0B90102C0660F771F39
S11302E08A95E2F7CB01842B81BB0895623459F1DE
S11302F018F4613441F00895633409F444C064345B
S113030009F460C0089541110EC04BB321E030E000
S1130310B90102C0660F771F8A95E2F7CB01809579
S113032084238BBB0895413009F06AC04BB321E0AC
S113033030E0B90102C0660F771F8A95E2F7CB015E
S1130340842B8BBB089541110EC048B321E030E0EB
S1130350B90102C0660F771F8A95E2F7CB01809539
S1130360842388BB0895413009F04AC048B321E092
S113037030E0B90102C0660F771F8A95E2F7CB011E
S1130380842B88BB089541110EC045B321E030E0B1
S1130390B90102C0660F771F8A95E2F7CB018095F9
S11303A0842385BB0895413059F545B321E030E0FD
S11303B0B90102C0660F771F8A95E2F7CB01842B3F
S11303C085BB089541110EC042B321E030E0B9016C
S11303D002C0660F771F8A95E2F7CB0180958423CC
S11303E082BB0895413061F442B321E030E0B901A9
S11303F002C0660F771F8A95E2F7CB01842B82BB7C
S113040008956234B1F018F4613431F0089563341E
S1130410E9F0643441F108954BB321E030E0B901CF
S113042002C0660F771F8A95E2F7CB0184278BBB46
S1130430089548B321E030E0B90102C0660F771F88
S11304408A95E2F7CB01842788BB089545B321E060
S113045030E0B90102C0660F771F8A95E2F7CB013D
S1130460842785BB089542B321E030E0B90102C07E
S1130470660F771F8A95E2F7CB01842782BB089524
S113048062E084E40E9466008FB780688FBF85B7FE
S1130490816085BF85B7826085BF8BB780648BBF61
S11304A0089583B78F7B83BF83B7877F83BF8CE037
S11304B082BF83B7816083BF83B7846083BF0BC06F
S11304C008B600FEFDCF88B7816088BF80916100C7
S11304D08F5F8093610080916100843188F3109272
S11304E06100089583B78F7B83BF83B7877F83BF02
S11304F08CE082BF83B7816083BF83B7846083BF8E
S11305000BC008B600FEFDCF88B7816088BF80911C
S113051060008F5F8093600080916000823088F378
S10D0520109260000895F894FFCFD4
S9030000FC
